:0E104D004572726F72004300255248002D005C
:0C10690001542D01530001525501511497
:05108F008F528D51227B
:051094008F548D532272
:100C3C0030B30930B40630B50320B6597F0A7E00B4
:100C4C00120F8620B311E55404FFE553FD7C00120E
:100C5C00109420B34080FB20B413E55324FFFDE433
:100C6C0034FFFCAF5412109420B42A80FB20B51131
:100C7C00E55204FFE551FD7C0012108F20B5168063
:100C8C00FB20B611E55124FFFDE434FFFCAF5212FA
:060C9C00108F30B6FD22AE
:070F0700E50CFD7C00AF0BBF
:100F0E00EFC395534006EFD3955440037F0122C3A0
:100F1E00ED95517480F86C98400AD3ED955274801B
:0A0F2E006C9840037F02227F00222E
:1008000075080075093CE4F50BF50CF50D120E3377
:10081000121081EF600B7BFF7A10794D120F61800F
:10082000EF120C3CE4FDFF120FC07523007524008D
:1008300075250C7B007A00790B120CA2E50B75F084
:100840000A842430F50EE50B75F00A84E5F02430B7
:10085000F50FE4F510FB7A00790E120F611210B754
:100860007BFF7A107953120F617D01E4FF120FC0F4
:10087000E50C75F00A842430F511E50C75F00A8456
:10088000E5F02430F512E4F513FB7A007911120F2C
:10089000617BFF7A107955120F61E4FD7F08120F1A
:1008A000C0E55375F00A842430F517E55375F00A56
:1008B00084E5F02430F518E4F519FB7A0079171275
:1008C0000F617BFF7A107959120F61E55475F00AB8
:1008D000842430F514E55475F00A84E5F02430F5ED
:1008E00015E4F516FB7A007914120F617D017F087B
:1008F000120FC0E55175F00A842430F51AE55175E0
:10090000F00A84E5F02430F51BE4F51CFB7A00794D
:100910001A120F617BFF7A107959120F61E5527537
:10092000F00A842430F51DE55275F00A84E5F024C0
:1009300030F51EE4F51FFB7A00791D120F61752357
:100940000075240075250C7B007A00790B120CA22F
:10095000120F078F0AE50A7003020821B40102C2D0
:10096000A3E50AB40202C2A4E5091509AE087002A3
:1009700015084E602475230075240075250C7B0036
:100980007A00790B120CA2120F078F0AE50A600990
:100990007FD07E07120FF780CFD2A3D2A402082106
:100DA900040E1504040404000004040404150E04CC
:100DB9000004081F080400000004021F02040000C8
:100DC90004040A1F1F0A0404001F001F0A0A130053
:100DD9000000001F000000000000001F1F000000AD
:080DE9000705070000000000EF
:10101F008F90C2A0D2A17F017E00120F86C2A122A3
:0C0FA400EF3395E08F82F5831209B9FF4E
:100FB0008F90D2A0D2A17F017E00120F86C2A12203
:100E33007F0F7E00120F861210B27F057E00120F05
:100E4300861210A87F057E00120F861210A37F055D
:100E53007E00120F861210997F057E00120F867B8B
:080E6300FF7A0D79E9020F3856
:051099007F0102101FA1
:05109E007F2002101F7D
:0510A3007F0602101F92
:0510A8007F0C02101F87
:0510AD007F1802101F76
:0510B2007F3802101F51
:0F102F00EFD394404002E4FFEF2440FF02101F74
:0F103E00EFD394804002E4FFEF2480FF02101FE5
:100FC0008F20E520D394274003752027ED7004AFD0
:0C0FD000208005E5202440FF12103E2286
:0E105B00EF75F00A84AFF0EF2430FF020FB003
:100DF100E4F54BEF6022EFD394004023EF75F00A46
:100E010084E5F02430FEAD4B054B74472DF8A60662
:100E1100EF75F00A84FF80DE7447254BF87630E5E4
:100E21004B600E154B7447254BF8E6FF120FB0804F
:010E3100EED2
:010E3200229D
:040D0400AB07AA0689
:100D0800E4F546EB4A6033D3EB9400EA94004031B3
:100D18007C007D0AAF03AE021209F8ED2430FFAE65
:100D280046054674402EF8A6077C007D0AAF03AE40
:100D3800021209F8AA06AB0780CD74402546F8765A
:100D480030E546600E154674402546F8E6FF120F5A
:030D5800B080EE7A
:010D5B002275
:080BB8008F338E328D318C3039
:100BC000E4F53FFFFEFDFCAB33AA32A931A830C3E8
:100BD000120B1B604DE4FFFEFDFCAB33AA32A931C2
:100BE000A830D3120B1B4041E47B0AFAF9F8AF336B
:100BF000AE32AD31AC30120A89EB2430FFAE3F0586
:100C00003F74342EF8A607AF33AE32AD31AC30E4CA
:100C10007B0AFAF9F8120A898F338E328D318C30C3
:100C200080B37434253FF87630E53F600E153F748D
:0B0C300034253FF8E6FF120FB080EE05
:010C3B002296
:020ED5008F5537
:100ED700E555C4540FF556D39409E5564004243715
:100EE70080022430FF120FB0E555540FF556D39406
:0F0EF70009E5564004243780022430FF120FB063
:010F060022C8
:100F61008B208A218922AB20AA21A9221209A06003
:100F7100130522E5227002052114F91209A0FF12BE
:050F81000FB080E22228
:060F38008B208A218922B2
:100F3E00AF2312102FE4F523AB20AA21A922AF2351
:100F4E00120FA40523C3E5236480948840EAE4FFCE
:030F5E0002103E40
:0510B700E4FF020FB090
:080E6B008F4C8B4D8A4E894F1C
:100E7300E54C33333354F8F54CE4F550E54C255049
:100E8300FF12102FAB4DAA4EA94FAF50120FA4055E
:0F0E930050C3E5506480948840E2E4FF02103EB3
:10100D00E4F557AF57120FB00557E557C394084095
:01101D00F2E0
:01101E0022AF
:08108100D2B2120FDC020EA234
:100FDC00D2B27F017E00121076C2B27F197E00124F
:0B0FEC000F86D2B27F037E0002107659
:100EA200E4FF20B20AEFC3946450040F0080F3EF12
:100EB200C3946440037F0122E4FF30B20AEFC3947B
:100EC2006450040F0080F3EFC3946440037F012257
:020ED2007F009F
:010ED40022FB
:100D5C00E4F52EF52FF52C20B20CE52FC394325070
:100D6C0005052F0080F1E4F52F7F03FE121076E4C9
:100D7C00F52D30B203752D0130B20CE52FC3946400
:100D8C005005052F0080F1E52E25E0F52EE52D42CE
:0C0D9C002E052CE52CC3940840BDAF2EA2
:010DA8002228
:060CA2008B208A2189224B
:100CA800120FDC120EA2EF704DF52B120D5C74269C
:100CB800252BF8A607052BE52BC3940540EDE52663
:100CC8002527FFE433FE7C00EF2528FFEC3EFEEFEE
:100CD8002529FFEC3EFEEFB52A1FECB5061BAB231A
:100CE800AA24A925E5261209E6AB20AA21A922E50E
:0B0CF800281209E680037F01227F0024
:010D030022CD
:0B107600EF1FAC0670011E4C70F6224C
:100F8600D3EF9400EE940040147D6E7C00ED1D704E
:0D0F9600011CED4C70F7EF1F70E61E80E3AC
:010FA300222B
:05108900007FF7DFFE0F
:01108E00223F
:100FF700AD07AC06ED1DAE0470011C4E6007B2A232
:0610070012108980EF22A7
:03000000020B2CC4
:0C0B2C00787FE4F6D8FD758157020B734A
:1009A000BB010689828A83E0225002E722BBFE0255
:0909B000E32289828A83E4932288
:1009B900BB010CE58229F582E5833AF583E02250F3
:1009C90006E92582F8E622BBFE06E92582F8E2223D
:0D09D900E58229F582E5833AF583E4932257
:1009E600BB010689828A83F0225002F722BBFE01F0
:0209F600F322EA
:1009F800BC000BBE0029EF8DF084FFADF022E4CCE3
:100A0800F875F008EF2FFFEE33FEEC33FCEE9DECAB
:100A1800984005FCEE9DFE0FD5F0E9E4CEFD22EDF1
:100A2800F8F5F0EE8420D21CFEADF075F008EF2F3B
:100A3800FFED33FD4007985006D5F0F222C398FD2C
:050A48000FD5F0EA22C9
:100A4D0075F008758200EF2FFFEE33FECD33CDCC60
:100A5D0033CCC58233C5829BED9AEC99E5829840E3
:100A6D000CF582EE9BFEED9AFDEC99FC0FD5F0D6C0
:100A7D00E4CEFBE4CDFAE4CCF9A88222B800C1B9EA
:100A8D000059BA002DEC8BF084CFCECDFCE5F0CB28
:100A9D00F97818EF2FFFEE33FEED33FDEC33FCEB61
:100AAD0033FB10D703994004EB99FB0FD8E5E4F91C
:100ABD00FA227818EF2FFFEE33FEED33FDEC33FC09
:100ACD00C933C910D7059BE99A4007EC9BFCE99AFD
:100ADD00F90FD8E0E4C9FAE4CCFB2275F010EF2F42
:100AED00FFEE33FEED33FDCC33CCC833C810D70742
:100AFD009BEC9AE899400AED9BFDEC9AFCE899F87D
:0E0B0D000FD5F0DAE4CDFBE4CCFAE4C8F9220F
:100B1B00EB9FF5F0EA9E42F0E99D42F0E89C45F030
:010B2B0022A7
:100B3800020800E493A3F8E493A34003F68001F2CB
:100B480008DFF48029E493A3F85407240CC8C333BE
:100B5800C4540F4420C8834004F456800146F6DF8D
:100B6800E4800B0102040810204080901069E47EA4
:100B7800019360BCA3FF543F30E509541FFEE49382
:100B8800A360010ECF54C025E060A840B8E493A349
:100B9800FAE493A3F8E493A3C8C582C8CAC583CA74
:100BA800F0A3C8C582C8CAC583CADFE9DEE780BE2C
:01107500007A
:00000001FF
